:020000040000FA
:100000000C9448060C9470060C9470060C947006C0
:100010000C9470060C9470060C9470060C94700688
:100020000C9470060C9470060C94F31E0C94621FD2
:100030000C9470060C9470060C9470060C94700668
:100040000C9470060C94B3220C9470060C947006F9
:100050000C9470060C9470060C9470060C94A91EF7
:100060000C9470060C9470060C9470060C94700638
:100070000C9470060C9470060C9470060C94700628
:100080000C9470060C9470060C9470060C94700618
:100090000C9494210C9470060C9470060C947006C9
:1000A0000C9470060C9470060C9470064E414E49E8
:1000B0004E495459494E46CDCCCC3D0AD7233C1726
:1000C000B7D13877CC2B329595E6241FB14F0A0073
:1000D0000020410000C84200401C4620BCBE4CCA63
:1000E0001B0E5AAEC59D74737472696E6700666CA0
:1000F0006F617400696E74006E756C6C00202D2049
:10010000000D0A4F4B0D0A000D0A4F4B0D0A0070EF
:100110006F6E67000D0A4F4B0D0A000D0A4F4B0D15
:100120000A00207573004176657261676520546925
:100130006D653A2000207573004D61782054696D1B
:10014000653A2000207573004D696E2054696D6515
:100150003A200028556E6E616D6564290053746104
:100160007469737469633A20002A2A2A2A2A2A2A7F
:100170002A2A2A2A2A2A2A2A2A2A2A2A2A002D2D03
:100180002D2D2D2D2D2D2D2D2D2D2D2D2D2D2D2D9F
:100190002D2D002A2A2A2A2A2A2A2A2A2A2A2A2AE3
:1001A0002A2A2A2A2A2A2A000D0A4F4B0D0A000D54
:1001B0000A4F4B0D0A004552524F523A2043686590
:1001C000636B65640D0A000D0A4F4B0D0A00455222
:1001D000524F523A204E6F74206D617463686564AB
:1001E0000D0A004552524F523A20496E76616C69B1
:1001F00064206C656E6774680D0A004552524F5258
:100200003A204E6F74206D6174636865640D0A0056
:100210004552524F523A2053656564206E6F7420E8
:100220006D6174636865640D0A000D0A4F4B0D0A19
:10023000004552524F523A2053656564206E6F74E8
:10024000206D6174636865640D0A004F4B0D0A00F0
:10025000426C7565746F6F7468206D6F64756C6542
:10026000207375636365737366756C6C7920003AEF
:100270002000426C7565746F6F7468206D6F6475D3
:100280006C65206572726F722000554E4B4E4F5751
:1002900020535441544500F800F400EE00E70045B7
:1002A00052524F523A20436F6D6D616E6420646FFD
:1002B0006573206E6F742065786973742022004521
:1002C00052524F523A20546F6F206D616E79206107
:1002D0007267756D656E7473004552524F523A20C5
:1002E0004E6F7420656E6F75676820617267756DFB
:1002F000656E747300202D20002028004552524F57
:10030000523A20417267756D656E74206F75742066
:100310006F662072616E676520004552524F523AF7
:100320002043616E2774207061727365206172676B
:10033000756D656E7420004552524F523A204275D9
:1003400066666572206F766572666C6F77002A2A22
:100350002A2A2A2A2A2A2A2A2A2A2A2A2A2A2A2AFD
:100360002A2A005761726E696E673A20506F737364
:1003700069626C6520636F6C6C6973696F6E206273
:1003800065747765656E206865617020616E6420B4
:10039000737461636B3A2025002A2A2A2A2A2A2AA2
:1003A0002A2A2A2A2A2A2A2A2A2A2A2A2A002028E3
:1003B00052414D454E44202F205F5F737461636B43
:1003C00029002B2D2D2D2D2D2D2D2D2D2D2D2D2D90
:1003D0002D2D2D2B20002B202020202073746163D5
:1003E0006B2020202020202B2073697A65203D205F
:1003F000002028535029002B2D2D2D2D2D2D2D2D56
:100400002D2D2D2D2D2D2D2D2B20002B202020208E
:100410002020202020202020202020202B002B20E6
:100420002020202020202020202020202020202BC1
:10043000002C206D696E5F73697A65203D20002B6A
:10044000202020465245452052414D20202020208A
:100450002B2073697A65203D20002B20202020204E
:1004600020202020202020202020202B002B202096
:1004700020202020202020202020202020202B0091
:1004800020285F5F62726B76616C206966206E6FF8
:100490007420302C206F72205F5F686561705F731D
:1004A0007461727429002B2D2D2D2D2D2D2D2D2DA8
:1004B0002D2D2D2D2D2D2D2B20002B2020202020EB
:1004C00020686561702020202020202B2073697A0D
:1004D00065203D200020285F5F6273735F656E6456
:1004E000202F205F5F686561705F7374617274298B
:1004F000002B2D2D2D2D2D2D2D2D2D2D2D2D2D2D5B
:100500002D2D2B20002B2020202076617269616226
:100510006C65732020202B2073697A65203D2000B4
:100520002B202020202020627373202020202020D8
:10053000202B0020285F5F646174615F656E64201A
:100540002F205F5F6273735F737461727429002B75
:100550002D2D2D2D2D2D2D2D2D2D2D2D2D2D2D2DCB
:100560002B20002B202020207661726961626C654F
:10057000732020202B2073697A65203D20002B20DA
:100580002020202020646174612020202020202B46
:100590000020285F5F646174615F73746172742905
:1005A000002B2D2D2D2D2D2D2D2D2D2D2D2D2D2DAA
:1005B0002D2D2B20002A2A2A2A2A2A2A2A2A2A2AC8
:1005C0002A2A2A2A2A2A2A2A2A00080B0002020298
:1005D00000000904000001020200000524001001CF
:1005E0000524010101042402060524060001070573
:1005F000810310004009040100020A000000070501
:1006000002024000000705830240000004030904C1
:1006100012010002EF0201404F1B0692000101028D
:100620000301537061726B46756E00537061726B9B
:1006300046756E2050726F204D6963726F004C6F6B
:100640006F7000427573696E657373204C6F6769D4
:100650006300426C7565746F6F746820436F6D6DD5
:10066000616E647300454550524F4D0048432D3034
:10067000350053657269616C20436F6D6D616E6406
:1006800073004B6579626F61726400427574746FB8
:100690006E005278205478204C6564004C656400EC
:1006A0005374617469737469630057617463686437
:1006B0006F670054696D6572203120434F4D504182
:1006C000204952510041542B5245534554004B652B
:1006D00079626F6172642053656375726974792001
:1006E00073746172746564000D0A0048432D3035DF
:1006F00020636F6D6D616E642070726F63657373DC
:10070000696E6720737475636B65642E2052657320
:10071000657474696E672E2E2E004552524F523A00
:10072000004F4B0D0A004F4B0D0A0048432D30354A
:10073000204154206D6F646520636865636B20669B
:1007400061696C65642E20526573657474696E67A7
:100750002E2E2E0048432D3035206973207265639C
:100760006F676E697A65642E004F4B0D0A00415425
:100770000D0A00496E697469616C697A696E672057
:1007800048432D30352E2E2E00426C7565746F6FE8
:1007900074682064657669636520636F6E6E656357
:1007A0007465642E00426C7565746F6F74682064A4
:1007B000657669636520646973636F6E6E656374E3
:1007C00065642E004572726F723A2043616E6E6FDF
:1007D000742073656E64206461746120696E2063A7
:1007E0006F6D6D616E64206D6F6465210045787476
:1007F00065726E616C20454550524F4D20666F7298
:100800006D617474696E6720636F6D706C6574657B
:100810006400496E7465726E616C20454550524F9C
:100820004D20666F726D617474696E6720636F6DC1
:10083000706C6574656400466F726D617474696E86
:100840006720636F6D706C65746564004B657970CB
:10085000616420666F726D617474696E672E2E2EEE
:100860000041542B52455345540041542B5541529D
:10087000543D33383430302C302C300041542B5020
:10088000494E3D313538380041542B4E414D453DA0
:100890004B3831300041542B524D41414400426CA1
:1008A0007565746F6F7468206D6F64756C65207208
:1008B0006573657474696E672E2E2E004B657962C0
:1008C0006F617264206C6F636B65640000000002EE
:1008D00000090F0000030401000C000000000000EC
:1008E000000000000000000000004572726F723AC4
:1008F00020436F6D6D616E6420717565756520694B
:10090000732066756C6C21002A2A2A2A2A2A2A2A30
:100910002A2A2A2A2A2A2A2A2A2A2A2A00554449FD
:10092000454E202855534220496E74657272757089
:100930007420456E61626C652052656769737465E9
:1009400072293A2000555342434F4E2028555342B6
:1009500020436F6E74726F6C2052656769737465A3
:1009600072293A2000414353522028416E616C6F36
:100970006720436F6D70617261746F7220496E748D
:10098000657272757074293A2000454543522028DB
:10099000454550524F4D20496E74657272757074A2
:1009A000293A2000414443535241202841444320E6
:1009B000496E74657272757074293A200053504301
:1009C00052202853504920496E74657272757074B4
:1009D000293A20005457435220285457492F49326E
:1009E0004320496E74657272757074293A200055FF
:1009F00043535231422028555341525420496E747A
:100A000065727275707473293A200054494D534BC6
:100A100034202854696D657234293A200054494DB8
:100A2000534B33202854696D657233293A200054A2
:100A3000494D534B31202854696D657231293A2054
:100A40000054494D534B30202854696D657230294C
:100A50003A200050434D534B303A20005043494315
:100A600052202850696E204368616E676520496E88
:100A70007465727275707473293A200045494D533C
:100A80004B202845787465726E616C20496E7465E0
:100A9000727275707473293A2000456E61626C65DC
:100AA0006420496E7465727275707473002A2A2A04
:100AB0002A2A2A2A2A2A2A2A2A2A2A2A2A2A2A2A96
:100AC0002A0000000000240027002A002D0030002A
:100AD000000000002300260029002C002F00000049
:100AE0000000250028002B002E0031000408020120
:100AF0001040804010204080408008020401804067
:100B0000201002011080102040402004040404043E
:100B100003040502020202040302020202060606A0
:100B2000060606040402020204047A0E780E730E0E
:100B3000171500000000756E6C6F636B00756E6CAE
:100B40006F636B20746865206B6579706164000366
:100B500000000000820E800E7C0E2B1500000000AD
:100B60006C6F636B006C6F636B20746865206B65E2
:100B700079706164008A0E880E840EF318000000FC
:100B80000063686B5365656400636865636B20731D
:100B900065656400920E900E8C0E401500000000FA
:100BA00067656E536565640067656E65726174653F
:100BB000207365656400B20EB00EAC0E53160000D3
:100BC000000070696E670070696E6700BA0EB80E3B
:100BD000B40E3A1A0000000068656C70006C69730E
:100BE0007420636F6D6D616E6473009A0E980E943D
:100BF0000EAF15000000007374617469737469634B
:100C000073006C69737420737461746973746963BD
:100C10007300A20EA00E9C0E42180000000072612C
:100C20006D00646973706C61792072616D207573F9
:100C300061676500AA0EA80EA40E4416000000000D
:100C4000697271006C6973742069727120726567D2
:100C500069737465727300B20EB00EAC0E53160059
:100C600000000070696E670070696E6700BA0EB8A8
:100C70000EB40E3A1A0000000068656C70006C69D2
:100C8000737420636F6D6D616E6473003E24083071
:100C900011241FBECFEFDAE0DEBFCDBF11E0A0E030
:100CA000B1E0E0EBFCE602C005900D92A839B10777
:100CB000D9F726E0A8E9B1E001C01D92A83EB2072D
:100CC000E1F716E0C7E4D6E004C02197FE010E94D8
:100CD0005A35C634D107C9F70E9400270C944B3609
:100CE0000C94000091E0803209F090E0892F089583
:100CF00091E0823209F090E0892F0895A6E5B5E0F1
:100D00005196ED91FC915297808155969C91892B3B
:100D100080830895FC0180913402882311F13FB74C
:100D2000F89482E08093E9002091F200822F90E015
:100D30001816190614F481E090E0882339F02898F9
:100D400044E6409333024091F1004083222339F07E
:100D50002091F200211103C02BE62093E8003FBF51
:100D600008958FEF9FEF08952FB7F89483E0809355
:100D7000E9009091E800892F807295FF04C090915E
:100D8000F20080E4891B2FBF089580912B0281110E
:100D90000DC082E08093270284E0809328021092A5
:100DA0002A021092290281E080932B0287E292E0CE
:100DB000089581508F3008F047C0E82FF0E0ED51E2
:100DC000F94F0C945A3500070407F206F806FC06A2
:100DD00024072407240707070D07110715071B071A
:100DE00024071F07809180008F77809380000895EB
:100DF000809180008F7DF9CF80918000877FF5CF33
:100E000084B58F7784BD089584B58F7DFBCF8091A5
:100E100090008F77809390000895809190008F7D4F
:100E2000F9CF80919000877FF5CF8091C0008F77B8
:100E30008093C00008958091C0008F7DF9CF80918C
:100E4000C200877F8093C2000895CF93DF93282F3D
:100E500030E0F901E453F74F8491F901E451F54F83
:100E6000D491F901E55FF44FC491CC23A1F0811135
:100E70000E94D906EC2FF0E0EE0FFF1FE053F54F74
:100E8000A591B491EC91ED2381E090E009F480E02C
:100E9000DF91CF91089580E090E0FACF1F93CF9338
:100EA000DF93282F30E0F901E453F74F8491F901E3
:100EB000E451F54FD491F901E55FF44FC491CC238F
:100EC000A9F0162F81110E94D906EC2FF0E0EE0F49
:100ED000FF1FE252F54FA591B4918FB7F894EC91B2
:100EE000111108C0D095DE23DC938FBFDF91CF9125
:100EF0001F910895DE2BF8CFCF93DF9390E0FC0194
:100F0000E451F54F2491855F944FFC01849188232F
:100F1000C9F090E0880F991FFC01EE53F54FA591A1
:100F2000B491FC01E252F54FC591D49161110DC00D
:100F30009FB7F8948C91209582238C9388812823E5
:100F400028839FBFDF91CF910895623051F49FB7FE
:100F5000F8943C91822F809583238C93E8812E2BEB
:100F6000EFCF8FB7F894EC912E2B2C938FBFEACF55
:100F70001F93CF93DF93182FEB0161E00E947C0752
:100F8000209739F460E0812FDF91CF911F910C946D
:100F90004E07CF3FD10511F461E0F5CFE12FF0E02E
:100FA000E453F74FE491E150EF3008F07FC0F0E0F8
:100FB000E452F84F0C945A35EB07F307F807020890
:100FC0000C08560856085608160820082A0834083F
:100FD00041085608490884B5806884BDC7BDDF91C3
:100FE000CF911F91089584B5806284BDC8BDF7CFAD
:100FF00080918000806880938000D0938900C093A6
:101000008800EDCF80918000806280938000D09333
:101010008B00C0938A00E3CF80918000886080932A
:101020008000D0938D00C0938C00D9CF8091900028
:10103000806880939000D0939900C0939800CFCFA0
:1010400080919000806280939000D0939B00C09329
:101050009A00C5CF80919000886080939000D093D3
:101060009D00C0939C00BBCF8091C000806880939E
:10107000C0008091C0008F7B8093C000C093CF00E0
:10108000AECF8091C00080628093C000C093D0003A
:10109000A6CF8091C20088608093C2008091C20078
:1010A0008B7F8093C200C093D20099CFC038D10506
:1010B0000CF072CF67CF3FB7F894809123029091E4
:1010C0002402A0912502B091260226B5A89B05C056
:1010D0002F3F19F00196A11DB11D3FBFBA2FA92FB7
:1010E000982F8827BC01CD01620F711D811D911DB4
:1010F00042E0660F771F881F991F4A95D1F7089520
:101100008F929F92AF92BF92CF92DF92EF92FF9217
:101110004B015C010E945B086B017C010E945B0833
:101120006C197D098E099F09683E73408105910500
:10113000A8F321E0821A9108A108B10888EEC80E30
:1011400083E0D81EE11CF11C81149104A104B104B8
:1011500029F7FF90EF90DF90CF90BF90AF909F90D6
:101160008F9008952FB7F89460911F02709120021C
:1011700080912102909122022FBF0895CF93DF9397
:10118000CCE1D5E089AB0E94B2086CAB7DAB8EABF5
:101190009FABDF91CF91089508950895409111027A
:1011A0005091120220910F02309110024217530702
:1011B000B4F49091E8009570E1F39091E80092FD0D
:1011C00019C08093F1008091110290911202019652
:1011D0008F739927892B19F48EEF8093E800809103
:1011E00011029091120201969093120280931102C3
:1011F00081E0089580E00895DF92EF92FF920F93CF
:101200001F93CF93DF93D82E8A01EB017B01E40E6D
:10121000F51ECE15DF0559F0D7FE12C0FE018491F0
:101220000E94CE0821968111F4CF0FEF1FEFC80165
:10123000DF91CF911F910F91FF90EF90DF90089574
:101240008881EECF0F931F93CF93DF931F92CDB77B
:10125000DEB782E0898342E450E06AEC75E080E822
:101260000E94FC080E94C506DC0112960D911C919B
:101270000115110589F0D801ED91FC910280F381EF
:10128000E02DBE016F5F7F4FC801099597FD04C037
:10129000F80100851185ECCF89810F90DF91CF9106
:1012A0001F910F910895615030F02091F100FC01E1
:1012B00020830196F8CF289884E68093330208951E
:1012C000DC01ED91FC910190F081E02D0994DB01AE
:1012D00014964D915C9115976D917C91DC01ED9187
:1012E000FC910280F381E02D0994EF92FF920F931D
:1012F0001F93CF93DF938C017B01D0E0C0E0F70117
:10130000EC0FFD1F6491662361F0D801ED91FC9113
:101310000190F081E02DC8010995892B11F02196EB
:10132000EECFCE01DF91CF911F910F91FF90EF9003
:101330000895AF92BF92CF92DF92EF92FF920F93F8
:101340001F93CF93DF936C017B018B01040F151F5B
:10135000EB015E01AE18BF08C017D10759F06991C3
:10136000D601ED91FC910190F081E02DC601099527
:10137000892B79F7C501DF91CF911F910F91FF90D4
:10138000EF90DF90CF90BF90AF9008958F929F9293
:10139000AF92BF92CF92DF92EF92FF920F931F9383
:1013A000CF93DF936C017B018A0180910B0188232D
:1013B00009F45CC080913402882309F457C08091FD
:1013C000150280FF05C08091E00082608093E000FC
:1013D000E801B12C8AEFA82E93E0892E2AE3922E01
:1013E000209711F4BB20D9F10E94B40681110AC0E4
:1013F000AA94AA20D9F161E070E080E090E00E9418
:101400008008EECF8C171D0611F00CF08C2F9FB7C3
:10141000F8948092E9002091E80025FD02C09FBF6A
:10142000DFCF282F30E0C21BD30BF701815020F013
:1014300041914093F100FACFE20EF31EBB2021F060
:101440009092E800B12CEBCF8091E80085FDE7CFCA
:101450009092E800BB24B394209709F3F3CF5D98F2
:1014600084E680931402101611063CF081E090E0AF
:10147000F6019383828310E000E0C801DF91CF91F1
:101480001F910F91FF90EF90DF90CF90BF90AF90A2
:101490009F908F900895CF93DF931F92CDB7DEB7C3
:1014A0006983DC01ED91FC910280F381E02D41E044
:1014B00050E0BE016F5F7F4F09950F90DF91CF9194
:1014C000089583E08093E9008091F200882319F069
:1014D0008AE38093E80008950E94B40690E008959E
:1014E000CF93DF931F92CDB7DEB7FC01848595853E
:1014F00097FD08C02FEF3FEF358724870F90DF91CE
:10150000CF910895CE0101960E948A06019719F4A1
:10151000898190E0F3CF8FEF9FEFF0CF0F931F9370
:10152000CF93DF931F92CDB7DEB78C01FC0184858A
:10153000958597FF0BC0CE0101960E948A06019700
:1015400071F4898190E0F80195878487F80184859A
:1015500095850F90DF91CF911F910F9108958FEF97
:101560009FEFF1CFFC018485958597FD0BC09FB758
:10157000F89482E08093E9008091F2009FBF90E0B0
:10158000019608959FB7F89482E08093E9008091D6
:10159000F2009FBF90E00895DC011E968D919C9112
:1015A000DC01ED91FC910680F781E02D0994DC01CE
:1015B0001C968D919C91DC01ED91FC910484F58544
:1015C000E02D0994DC011E968D919C91DC01ED913A
:1015D000FC910480F581E02D0994DC011C968D912D
:1015E0009C91DC01ED91FC910084F185E02D099442
:1015F000DC011E968D919C91DC01ED91FC91019096
:10160000F081E02D0994682F8BEE94E00C94F80A99
:10161000DC011C968D919C91DC01ED91FC91028482
:10162000F385E02D09940895DC0152968D919C91EB
:101630005397892B61F01C96ED91FC911D97509664
:101640008D919C91E80FF91F808190E008958FEFB4
:101650009FEF08950F931F93CF93DF93FC010289AF
:10166000138930E020E0C62F660FDD0B0217130749
:1016700099F080899189820F931F668577850E94F2
:101680003235A485B585A80FB91F8C918C171D061E
:1016900049F02F5F3F4FEACF80E0DF91CF911F915C
:1016A0000F91089581E0F9CFFC0186859785228905
:1016B0003389821B930B0895FC01828993890895D5
:1016C000FC01228933898685978528173907B9F067
:1016D00040895189240F351F2817390710F0281B1E
:1016E000390B84859585280F391FD9016C93828920
:1016F00093890196938B828B81E090E0089590E02E
:1017000080E00895FC014289538941155105C1F0DB
:1017100020893189A485B585A20FB31F8C9190E0F3
:101720002F5F3F4F318B208B41505109538B428BA0
:10173000468557852417350729F4118A108A08959C
:101740008FEF9FEF0895CF92DF92EF92FF920F936A
:101750001F93CF93DF93DB010D911C9101151105B0
:10176000A9F16B017C01E8018E012196D7011C963D
:10177000ED91FC91D8018C9109958111F5CFD7019C
:101780001E96ED91FC91D8018C910995882341F129
:10179000F80180818E019E01E90198812F5F3F4F02
:1017A000981302C0199204C09111F6CF8823D1F387
:1017B000D7011C96ED91FC91888109958111F2CF9A
:1017C00088818823D9F0F601D183C083C801DF91D5
:1017D000CF911F910F91FF90EF90DF90CF900895E0
:1017E000E801D7011C96ED91FC9188810995811142
:1017F000DFCF88818823E1F22196F3CFD6011D92B5
:101800001C92E4CF2091DA01260F3327331F2132B7
:101810003105ECF420915B02FC0190E080E0243083
:1018200069F082E00895A091DA012191AC0146545B
:101830005E4FA40FB52FB11D2C930196861798F318
:101840008091DA01680F6093DA0180E0089581E009
:10185000089510925B0281E080935A021092350243
:1018600061E082E00E944E0761E083E00E944E0743
:10187000E9EBF0E080818E7F808380818D7F8083A3
:1018800088E48093B80085E48093BC000895CF93EA
:10189000DF9391E09093B9018823B9F0C091B8002B
:1018A000D091BA008091BC008A7B8093BC0060E03C
:1018B00082E00E944E0760E083E00E944E070E9493
:1018C000290CD093BA00C093B800DF91CF9108954E
:1018D0008F929F92AF92BF92CF92DF92EF92FF9240
:1018E0000F931F93CF93DF93D0918402D13208F0EE
:1018F000D7C0182FC09183020E945B086B017C0146
:1019000080915B0281116BC082E080935B02109337
:101910005A028FEF8093590210925802D0935702C7
:10192000A3E6B2E0E7E3F2E080E0D81391C01092C2
:10193000360280913602CC0FC82BC09336028091BC
:101940003502813009F088C0109235020E945B0890
:101950006B017C01809136028093BB0080915D0217
:1019600090915E02A0915F02B0916002892B8A2B58
:101970008B2BA1F00E945B0800915D0210915E022A
:1019800020915F02309160026C197D098E099F09D8
:10199000061717072807390708F442C08091BC00D2
:1019A00083FDD8CF85EC8093BC000E945B086B015F
:1019B0007C0180915B02823009F450C08091590211
:1019C0008F3F09F46FC080915902803209F46CC0D6
:1019D00080915902803309F469C084E026C0809167
:1019E0005D0290915E02A0915F02B0916002892B2E
:1019F0008A2B8B2B09F484CF0E945B0880905D02B8
:101A000090905E02A0905F02B09060026C197D0918
:101A10008E099F0986169706A806B90608F070CFAA
:101A200080915C020E94470C85E010926202109245
:101A3000840210926102DF91CF911F910F91FF906C
:101A4000EF90DF90CF90BF90AF909F908F900895D0
:101A50009D9191938F5F69CF85EEA5CF80915D02B7
:101A600090915E02A0915F02B0916002892B8A2B57
:101A70008B2B09F49ECF0E945B0800915D021091B0
:101A80005E0220915F02309160026C197D098E091F
:101A90009F09061717072807390708F08ACFC0CF14
:101AA00081E0C3CF80E0C1CF82E0BFCF83E0BDCF74
:101AB000E0911C0280911B02E81730F4F0E0E75639
:101AC000FE4F808190E008958FEF9FEF08959091F1
:101AD0001C0280911B022FEF3FEF981748F4E92F6B
:101AE000F0E0E756FE4F208130E09F5F90931C02AC
:101AF000C901089580911B0290911C02891B990BCA
:101B00000895CF92DF92EF92FF920F931F93CF939E
:101B1000DF937C01CB018A0120916102222389F0AD
:101B2000EB016B01C40ED51ECC15DD0569F0699182
:101B3000D701ED91FC910190F081E02DC70109954D
:101B4000F3CF642F0E94020CC801DF91CF911F9147
:101B50000F91FF90EF90DF90CF900895CF93DF9398
:101B60001F92CDB7DEB76983209161022223F9F07D
:101B700020918402203258F021E030E0FC013383D0
:101B8000228390E080E00F90DF91CF9108958091C3
:101B90006202E82FF0E0ED59FD4F998190838F5F4D
:101BA000809362028093840281E090E0ECCF61E058
:101BB000CE0101960E94020CF7CFDC0190969C9119
:101BC000909791968C919197981B9F71691768F4E3
:101BD0009196EC919197E60FEF71EA0FFB2FF11DB3
:101BE0008081FA01808381E0089580E00895CF9399
:101BF000DF93FC0180A18F5F8F7191A1981304C0C6
:101C000091A19F5F9F7191A3A0A1EB019881AE0F5D
:101C1000BF2FB11D9C9380A3DF91CF910895FC014C
:101C200090A181A1981751F090A181A19817C1F3BB
:101C300081A181A18F5F8F7181A3F2CF08950F934E
:101C40001F93CF93DF93EC010E945B080A811B81F5
:101C50002C813D81DC01CB01801B910BA20BB30BCE
:101C60000E811F812885398580179107A207B30748
:101C700020F48E839F83A887B9870A851B852C85CE
:101C80003D85081719072A073B0720F48A879B8799
:101C9000AC87BD870E851F8528893989080F191FD4
:101CA0002A1F3B1F0E871F87288B398B8A899B89A8
:101CB000AC89BD890196A11DB11D8A8B9B8BAC8B14
:101CC000BD8BDF91CF911F910F910895CF93DF933B
:101CD000EC010E945B086A837B838C839D83DF9188
:101CE000CF910895089521E0FB0120838596089502
:101CF000439608950C960895FB01108281960895ED
:101D0000419608950C960895FB0110824F96089510
:101D1000449608950C960895FB01108282960895CA
:101D2000449608950C960895FB01108287960895B5
:101D3000479608950C960895FB01108282960895A7
:101D4000409608950C960895FB011082839608959D
:101D5000409608950C960895FB01108246960895CA
:101D6000419608950C960895FB0110824F960895B0
:101D7000419608950C960895982F80ED890F8A302A
:101D800070F08FEB890F863018F489EC890F089575
:101D90008FE9890F863010F489EAF8CF80E0089542
:101DA000982F81E09A3021F09D3011F080E0089565
:101DB000089580919801882329F08091980181509D
:101DC0008093980180919801811101C078940895C1
:101DD00080919801811101C0F894809198018F5FE2
:101DE000809398010895CF93DF93EC010E94E80E51
:101DF0008E899F89FC01E05CFF4F30813196208104
:101E0000CFEFDFEF321731F0E081E80FF92FF11D4E
:101E1000C081D0E00E94D90ECE01DF91CF9108950C
:101E2000CF93DF93EC010E94E80E8E899F89FC011D
:101E3000E05CFF4F308131962081CFEFDFEF32172A
:101E400051F0A081A80FB92FB11DCC9190819F5F57
:101E50009F739083D0E00E94D90ECE01DF91CF9185
:101E60000895CF93DF93EC010E94E80E8E899F893D
:101E7000FC01E05CFF4FC0818F5B9F4FFC01D08174
:101E80000E94D90ECD1BCF738C2F90E0DF91CF91A4
:101E900008951F93CF93DF93EC01162F0E94E80E55
:101EA000288D398DF901E05CFF4F80818F5F8F7342
:101EB000D901AF5BBF4F9C91891739F1A081A20F67
:101EC000B32FB11D1C93808311E08BA18F3FA9F428
:101ED000888D998DFC01E05CFF4F30813196208127
:101EE000321759F0A081A80FB92FB11D9C918081A4
:101EF0008F5F8F7380839CA31BA20E94D90E812FBA
:101F000090E0DF91CF911F91089510E0DECF90E037
:101F100080E00895CF93DF938091290590912A0561
:101F2000892B41F18091210590912205009711F1B3
:101F3000FC01228133813093220520932105C08149
:101F4000D1810E94BF308091210590912205892B7B
:101F500021F4109224051092230580912905909177
:101F60002A05019790932A0580932905CE01DF91D8
:101F7000CF910895D0E0C0E0F9CFCF93DF93EC018B
:101F800088819981009711F00E94BF3019821882D0
:101F90001D821C821B821A82DF91CF910895FC0161
:101FA00080819181009711F00C94BF30089581E0F9
:101FB00090E00E946D3491E0811101C090E0892F82
:101FC0000895CF92DF92EF92FF921F93CF93DF930A
:101FD000D82FC92F82E090E00E946D348823B1F0A1
:101FE000ED2EFC2EC2E0D0E0CE010E946D34F70150
:101FF00081937F012196C231D105B1F7DF91CF9155
:102000001F91FF90EF90DF90CF9008950E94B2084B
:10201000CB010E949931ED2EFC2EC2E0D0E08EEF74
:10202000C82ED12C0E949431B6010E94463511E091
:10203000180FF70111937F01CE010E946D3418171C
:1020400021F0612FCE010E9475342196C231D10555
:1020500049F7D4CFCF93DF9390E080E00E946D34B6
:10206000C82F811118C00E94B208CB010E9499317B
:102070000E9494316FEF70E00E944635D82FC82F30
:1020800090E080E00E946D34D81729F06D2F90E029
:1020900080E00E9475348C2FDF91CF910895AF922C
:1020A000BF92CF92DF92EF92FF920F931F93CF9345
:1020B000DF931F92CDB7DEB76C0160E270E00E9443
:1020C0003B335C01892B31F180914B0590914C059C
:1020D000891B8F718A151B04E8F010914B058091C4
:1020E0004C05181B1F711A1900E0E02EF12CEA14A0
:1020F000FB04F8F4AE014F5F5F4F612F600F8BE27E
:1021000095E00E94DD0DF601EE0DFF1DE491898141
:10211000E81769F080E00F90DF91CF911F910F9148
:10212000FF90EF90DF90CF90BF90AF9008950F5F3A
:10213000DCCF81E0F0CF6F927F928F929F92AF922F
:10214000BF92CF92DF92EF92FF920F931F93CF93A4
:10215000DF931F92CDB7DEB78C015B0160E270E0C8
:10216000C5010E943B337C01892B91F48FEF9FEFD7
:102170000F90DF91CF911F910F91FF90EF90DF9023
:10218000CF90BF90AF909F908F907F906F90089569
:10219000F80180A191A1891B8F718E151F0430F366
:1021A000912CF80180A191A1C92CD12C891B8F7190
:1021B00090E08E199F098C159D05C0F2812C682C2A
:1021C000712C6E147F0498F4AE014F5F5F4F692D40
:1021D000680DC8010E94DD0DF501E60DF71DE491C3
:1021E00089818E1711F09394DCCF8394E8CFC601D8
:1021F000BFCF0F931F93CF93DF93EC018881998119
:10220000009759F02A813B812617370730F081E08B
:10221000DF91CF911F910F9108958B016F5F7F4FD9
:102220000E947E35009759F0998388831B830A8327
:102230002C813D81232B59F7FC011082E8CF80E0EF
:10224000E7CFFB0101900020E9F73197AF01461B72
:10225000570BDC01ED91FC910280F381E02D099494
:102260008F929F92AF92BF92EF92FF920F931F9324
:10227000CF93DF93CDB7DEB7A1970FB6F894DEBF4B
:102280000FBECDBF7C01FA01CB0119A2223008F4A8
:102290002AE08E010F5D1F4F822E912CB12CA12CB4
:1022A000BF01A50194010E94EC34F901CA016A3012
:1022B0000CF5605DD8016E938D01232B242B252B0B
:1022C00079F790E080E0109721F0BD01C7010E94EE
:1022D0002111A1960FB6F894DEBF0FBECDBFDF91DE
:1022E000CF911F910F91FF90EF90BF90AF909F9073
:1022F0008F900895695CDECFCF92DF92EF92FF92CC
:102300000F931F93CF93DF9377FF1DC06A017B016B
:10231000EC016DE20E9460098C0144275527BA0147
:102320004C195D096E097F092AE0CE010E94301127
:10233000800F911FDF91CF911F910F91FF90EF9030
:10234000DF90CF9008952AE0DF91CF911F910F91F8
:10235000FF90EF90DF90CF900C943011AB01770F8E
:10236000660B770B0C947C1165E971E00C942111DC
:102370000F931F93CF93DF93EC01462F50E070E053
:1023800060E022E00E9430118C01CE010E94B41165
:10239000800F911FDF91CF911F910F9108950F939F
:1023A0001F93CF93DF93EC010E94AE118C01CE01FD
:1023B0000E94B411800F911FDF91CF911F910F9157
:1023C00008950F931F93CF93DF93EC010E9475093B
:1023D0008C01CE010E94B411800F911FDF91CF912B
:1023E0001F910F910895CF93DF93EC016DEA7AE08E
:1023F0000E94E1116AE97AE0CE010E94E1116CE7E6
:102400007AE0CE010E9475096DB3CE010E94B81129
:102410006CE57AE0CE010E94750960916800CE01FA
:102420000E94B81163E57AE0CE010E9475096091BF
:102430006B00CE010E94B81161E47AE0CE010E94E7
:10244000750960916E00CE010E94B8116FE27AE0CA
:10245000CE010E94750960916F00CE010E94B811F3
:102460006DE17AE0CE010E94750960917100CE01A4
:102470000E94B8116BE07AE0CE010E94750960916C
:102480007200CE010E94B8116FEE79E0CE010E9479
:1024900075096091C900CE010E94B81164ED79E020
:1024A000CE010E9475096091BC00CE010E94B81156
:1024B0006DEB79E0CE010E9475096CB5CE010E94EA
:1024C000B81164EA79E0CE010E94750960917A0042
:1024D000CE010E94B8116AE879E0CE010E94750928
:1024E0006FB3CE010E94B81165E679E0CE010E947B
:1024F000750960B7CE010E94B81165E479E0CE019C
:102500000E9475096091D800CE010E94B8116DE15A
:1025100079E0CE010E9475096091E200CE010E942F
:10252000B81168E079E0CE01DF91CF910C94E11110
:10253000EF92FF920F931F93CF93DF934091290562
:1025400050912A0520912505309126054217530701
:1025500061F46AEE78E08FE293E0DF91CF911F9112
:102560000F91FF90EF900C94E1118C0188E090E0C6
:102570000E942330EC01198218821B821A821D826C
:102580001C828017910781F0F801E080F180E1144E
:10259000F10451F004811581B8010E94F9108111F4
:1025A00038C0CE010E94BD0F81E598E19F838E83E4
:1025B0000091290510912A05809125059091260505
:1025C00008171907F9F084E090E00E942330FC011D
:1025D000138212820097B1F0D183C0830F5F1F4F27
:1025E0002091210530912205232BD9F490932205C7
:1025F00080932105909324058093230510932A0549
:1026000000932905DF91CF911F910F91FF90EF90DB
:1026100008951D830C83B701888199810E944436F7
:10262000C3CFE0912305F091240593838283E2CF09
:102630008F929F92AF92BF92CF92DF92EF92FF92D2
:102640000F931F93CF93DF93EC011C81123009F499
:1026500085C068F4112309F421C1113009F441C087
:102660006AE872E08FE293E00E94E1115FC01330EC
:1026700009F484C01430A1F78D818111C0C00E947B
:10268000B208C8A0D9A0EAA0FBA06C197D098E09E8
:102690009F09CA88DB88EC88FD886C157D058E054E
:1026A0009F0508F4ACC081E08D830E94B20868A346
:1026B00079A38AA39BA388A599A5019699A788A722
:1026C0008B81853009F4B5C0863081F58A8D9B8D6C
:1026D000880F991F28A539A52817390708F0BDC00C
:1026E00025C00E94B208C8A0D9A0EAA0FBA06C191E
:1026F0007D098E099F09CC8CDD8CEE8CFF8C6C15CE
:102700007D058E059F0590F08B81833041F030F080
:10271000873030F484E08C831D8302C082E08C8398
:102720000E94B20868A379A38AA39BA32A81888107
:102730009C81933009F09AC06E817F8121118FC0F6
:10274000DF91CF911F910F91FF90EF90DF90CF908D
:10275000BF90AF909F908F900C94B8078B81813081
:1027600059F008F47AC0823011F01C82DFCF81E08A
:102770009D81913009F480E08D83F7CF0E94B208EB
:1027800008A119A12AA13BA1601B710B820B930B1D
:102790000A851B852C853D850617170728073907ED
:1027A00058F10E94B208C884D12CF12CE12C08A168
:1027B00019A12AA13BA14B015C01801A910AA20A2E
:1027C000B30AA5019401898590E0B0E0A0E0BC01C6
:1027D000CD016C197D098E099F090E9422352A8539
:1027E0003B854C855D850E948334C20ED31EE41E5A
:1027F000F51EDF82CE829ACF1C821D8297CF8D81FB
:10280000813009F05DCF0E94B208C8A0D9A0EAA02B
:10281000FBA06C197D098E099F09CE84DF84E888AE
:10282000F9886C157D058E059F0508F449CF1D823A
:102830003CCF0E94B208CCA0DDA0EEA0FFA06C1996
:102840007D098E099F09CE88DF88E88CF98C6C158C
:102850007D058E059F0508F469CF1D8286CF2FEF79
:1028600030E05901A61AB70AB5016ACF9D8161E02F
:10287000211104C0911104C060E002C09111FCCF8D
:10288000DF91CF911F910F91FF90EF90DF90CF904C
:10289000BF90AF909F908F900C944E07DF91CF9197
:1028A0001F910F91FF90EF90DF90CF90BF90AF906E
:1028B0009F908F900895CF92DF92EF92FF920F93A7
:1028C0001F93CF93DF93EC014E875F87688B798BE3
:1028D0000A8B1B8B2C8B3D8BCC8EDD8EEE8EFF8E70
:1028E0000E94B20868A379A38AA39BA384E08B8388
:1028F0009C81911106C0CD28CE28CF2869F081E0B7
:102900008C83CE01DF91CF911F910F91FF90EF90BB
:10291000DF90CF900C9418138C8381E08D830E94FC
:10292000B20868A379A38AA39BA3EBCF7F928F926F
:102930009F92AF92BF92CF92DF92EF92FF920F934E
:102940001F93CF93DF93CDB7DEB7A0970FB6F89460
:10295000DEBF0FBECDBF6C01DB01ED90FC908E01A0
:102960000F5F1F4F4701B0E28B0E911C5801F7011A
:1029700080810E94BC0E782ED70111968C910E9406
:10298000BC0EB0E17B9E90011124822BF501819356
:102990005F01F2E0EF0EF11CE814F90441F7CE01FB
:1029A00041960E94E10F8981998989278983BE0117
:1029B0006E5E7F4F9801215F3F4FF801AF01DB0151
:1029C0008D91BD01918198273196DA018C918927EB
:1029D00080832E173F0791F7FE017196C80140963C
:1029E000D8013D918D0121913217E1F06BEF71E03B
:1029F000F601808191810E94E11180E0A0960FB6DE
:102A0000F894DEBF0FBECDBFDF91CF911F910F9124
:102A1000FF90EF90DF90CF90BF90AF909F908F90FE
:102A20007F9008958A179B07D9F681E0E7CFCF936F
:102A3000DF93EC010E9496142881398161E372E0F2
:102A4000882321F010920D016BE472E0C901DF913F
:102A5000CF910C94E111CF93DF93EC010E94961477
:102A60002881398160E172E0882329F081E0809338
:102A70000D016AE272E0C901DF91CF910C94E1117E
:102A8000CF92DF92EF92FF920F931F93CF93DF933A
:102A9000CDB7DEB760970FB6F894DEBF0FBECDBFDF
:102AA0007C010E94D70F66EB71E0811144C00E9447
:102AB0002A10182FCE0101960E94E10F89818127EB
:102AC0008983CE0101966C019E01205F3F4FFC017E
:102AD000DF01319611968C9111979C918927808303
:102AE000E217F307A9F701E010E00C0F1D1F005FCC
:102AF0001F4FF60181916F01803130F460E3F701DF
:102B0000808191810E946009F6013197408150E0F7
:102B100070E060E020E1F701808191810E94301136
:102B200060E2F701808191810E9460090C151D050A
:102B300001F76FEA71E0F701808191810E94E11154
:102B400060960FB6F894DEBF0FBECDBFDF91CF9178
:102B50001F910F91FF90EF90DF90CF900895CF924B
:102B6000DF92EF92FF920F931F93CF93DF936C014D
:102B7000FC01C081D18163E971E0CE010E94E111C5
:102B80008EE0E82E81E0F82EF701019111917F018E
:102B90006DE571E0CE010E947509F80160817181D7
:102BA0006115710509F455C08FE293E00E94E111AF
:102BB00068E471E0CE010E947509F80146815781F1
:102BC000608571852AE0CE010E94301164E471E0D5
:102BD000CE010E94E11169E371E0CE010E94750906
:102BE000F80142855385648575852AE0CE010E94EF
:102BF000301165E371E0CE010E94E11166E271E0FF
:102C0000CE010E947509F8012289338944895589CA
:102C10002115310541055105F9F0668577858089D3
:102C200091890E94EC34BA01A9012AE0CE010E94E8
:102C3000301162E271E0CE010E94E111F8E2EF167C
:102C4000F1E0FF0669F06EE771E0CE010E94E1114C
:102C50009BCF63E571E0A8CF40E050E0BA01E5CF3B
:102C600069E671E0CE010E94E11168EA71E0F601C7
:102C700080819181DF91CF911F910F91FF90EF9013
:102C8000DF90CF900C94E111CF93DF93EC0188811A
:102C900099810E94F31164E171E088819981DF914B
:102CA000CF910C94E111CF93DF93EC016FE071E0D1
:102CB000888199810E94E11168E071E088819981A1
:102CC000DF91CF910C94E1112F923F924F925F923E
:102CD0006F927F928F929F92AF92BF92CF92DF922C
:102CE000EF92FF920F931F93CF93DF9300D000D00A
:102CF00000D0CDB7DEB79C838B8308E911E0980143
:102D0000205031403E832D8388EE96E09C01285967
:102D100031403A832983E091E206F091E3067F0196
:102D2000309721F488EEE82E86E0F82EC701885E01
:102D300096404C018DB79EB720E03BE02901481A30
:102D4000590A309711F4E8EEF6E06DB67EB66E1AC9
:102D50007F0AADB7BEB7BD0190E080E050E040E033
:102D600030E020E0EA17FB0708F55F011FEFA11A2A
:102D7000B10AD08015ECD11205C0009709F4CF013B
:102D8000F501F0CF0097E1F32115310561F01A014B
:102D9000221A330A6F01C81AD90A2C143D041CF0F8
:102DA00090E080E0EDCFAF019C01FACF009759F0A1
:102DB0002115310551F0A81BB90BFA01E21BF30BE9
:102DC000EA17FB0714F0BA01C9016B01C81AD90A46
:102DD000672B11F4D12CC12C65EB75E08B819C81A4
:102DE0000E94E11161EA75E08B819C810E94750966
:102DF00060E071E08B819C810E94AE1161E975E019
:102E00008B819C810E94E1116EE775E08B819C8132
:102E10000E9475098B819C810E94B41163E675E064
:102E20008B819C810E9475096D817E818B819C8143
:102E30000E94CF116FE475E08B819C810E9475091F
:102E400068E971E08B819C810E94AE1163E375E0BB
:102E50008B819C810E94E11160E275E08B819C81F5
:102E60000E9475098B819C810E94B41165E075E018
:102E70008B819C810E94750969817A818B819C81FB
:102E80000E94CF1161EF74E08B819C810E947509D3
:102E900068EE76E08B819C810E94AE1165ED74E056
:102EA0008B819C810E94E1116AEB74E08B819C8193
:102EB0000E947509B4018B819C810E94CF1166EA42
:102EC00074E08B819C810E947509B7018B819C8184
:102ED0000E94AE1160E874E08B819C810E94E11138
:102EE0006DE674E08B819C810E9475098B819C81C9
:102EF0000E94B4116AE574E08B819C810E9475097F
:102F00008B819C810E94B4116FE374E08B819C8162
:102F10000E947509B3018B819C810E94AE1161E30F
:102F200074E08B819C810E947509B6018B819C8124
:102F30000E94CF116EE174E08B819C810E94750923
:102F40008B819C810E94B4116BE074E08B819C8129
:102F50000E9475098B819C810E94B41167EF73E018
:102F60008B819C810E9475096DB77EB78B819C8196
:102F70000E94AE1161EF73E08B819C810E94E11190
:102F800066ED73E08B819C810E947509B2018B8193
:102F90009C810E94CF1162EC73E08B819C810E9426
:102FA00075096FEF7AE08B819C810E94AE116EEA09
:102FB00073E08B819C810E94E11169E973E08B8150
:102FC0009C810E94E11124E6C216D1040CF041C09C
:102FD000E091E206F091E306309711F4E8EEF6E0B6
:102FE000CF018C599F4F10E000E02191253C11F456
:102FF0000F5F1F4FE817F907C1F763E673E08B8196
:103000009C810E94750964E670E0601B710B8B81E6
:103010009C810E94CF116EE473E08B819C81269687
:103020000FB6F894DEBF0FBECDBFDF91CF911F91D9
:103030000F91FF90EF90DF90CF90BF90AF909F9057
:103040008F907F906F905F904F903F902F900C9457
:10305000E11126960FB6F894DEBF0FBECDBFDF910B
:10306000CF911F910F91FF90EF90DF90CF90BF9085
:10307000AF909F908F907F906F905F904F903F9018
:103080002F900895CF93DF93EC01888199810E945E
:1030900064166BE171E088819981DF91CF910C9486
:1030A000E1110F931F93CF93DF93EC018A01662305
:1030B00099F060E572E08FE293E00E947509BE012D
:1030C0008FE293E00E9467098FE293E0DF91CF9156
:1030D0001F910F910C94B41162E772E08FE293E0BC
:1030E0000E947509BE018FE293E00E9467096FE6B6
:1030F00072E08FE293E00E947509B801E1CF8F92F0
:103100009F92AF92BF92CF92DF92EF92FF920F9376
:103110001F93CF93DF93CDB7DEB7A1970FB6F89487
:10312000DEBF0FBECDBF8C015B01DB0190968C91A1
:10313000909791968C9191979096EC91909791960B
:103140008C91E81BEF71FE2EFE0131964F01E12CB0
:103150006F01FE1451F0A4016E2DC5010E94DD0D1A
:10316000E394FFEF8F1A9F0AF4CFF601EF0DF11DE4
:103170001082D80111961C921E9213961C921E92D8
:10318000129715961C921E921497F601019000203A
:10319000E9F731977F01EC18FD08B701C8010E94DB
:1031A000F910811117C0C8010E94BD0FC801A19676
:1031B0000FB6F894DEBF0FBECDBFDF91CF911F9148
:1031C0000F91FF90EF90DF90CF90BF90AF909F90C6
:1031D0008F900895F801F582E482B6018081918193
:1031E0000E944436E3CF7F928F929F92AF92BF921C
:1031F000CF92DF92EF92FF920F931F93CF93DF93C3
:10320000CDB7DEB7A0970FB6F894DEBF0FBECDBF27
:103210006C01DB01ED91FC91DF010D900020E9F7DD
:10322000CD01819763EE71E08E179F0709F043C0CF
:103230008F01CE0101967C014F0190E2890E911C15
:103240005701D8018C910E94BC0E782EF801818123
:103250000E94BC0EF0E17F9E90011124822BD501CB
:103260008D935D010E5F1F4F0815190551F70E94E0
:103270002A109981892789839701215F3F4FF701A0
:10328000DF01319611968C9111979C91892780834B
:103290002E173F07A9F7CE0141960E94E10FFE01CC
:1032A0007196C7014096D7013D917D01219132175A
:1032B000D9F06EEC71E0F601808191810E94E111FC
:1032C000A0960FB6F894DEBF0FBECDBFDF91CF91B1
:1032D0001F910F91FF90EF90DF90CF90BF90AF9034
:1032E0009F908F907F9008958A179B07E1F667EC77
:1032F00071E0D6018D919C91E1CFEF92FF920F93F7
:103300001F93CF93DF93EC018B01198218821B82EC
:103310001A821D821C82CB010E941A337C01BC01DF
:10332000CE010E94F910811109C0CE01DF91CF9129
:103330001F910F91FF90EF900C94BD0FFD82EC82D6
:10334000B80188819981DF91CF911F910F91FF90F2
:10335000EF900C941333CF92DF92EF92FF920F9382
:103360001F93CF93DF9300D000D000D0CDB7DEB74E
:103370008C017B01FB0182819381009781F09A830C
:1033800089831C821B82BE016F5F7F4FC8010E9430
:10339000AB1960E2F801808191810E946009F70118
:1033A00080819181FC0125913491F9010995BC013D
:1033B000F801808191810E9475091E82F701808148
:1033C0009181FC01349625913491BE016A5F7F4F53
:1033D000F901099519821B821A821D821C827C01C7
:1033E000D12CC12C8E818C151D04A9F1A0F145E0D2
:1033F00050E0B701CE0101960E940A3360E2F80165
:10340000808191810E9460096CE3F8018081918143
:103410000E946009EC81FD813097A1F00995BC0103
:10342000F801808191810E9475096EE3F801808125
:1034300091810E946009FFEFCF1ADF0A85E0E80E54
:10344000F11CD0CFE981F0E0EE0FFF1FE956FD4FF0
:1034500085919491E4CF26960FB6F894DEBF0FBE07
:10346000CDBFDF91CF911F910F91FF90EF90DF9033
:10347000CF900895CF92DF92EF92FF920F931F9318
:10348000CF93DF93EC01C884D9840E811F81F12C86
:10349000E12CCE14DF0411F1B801CE010E94AB196A
:1034A0006DEF70E0888199810E947509F801808133
:1034B0009181FC01329625913491F9010995BC0165
:1034C000888199810E947509888199810E94B4112F
:1034D000FFEFEF1AFF0A0C5F1F4FDBCF61E071E0D7
:1034E00088819981DF91CF911F910F91FF90EF908B
:1034F000DF90CF900C94E1112F923F924F925F9208
:103500006F927F928F929F92AF92BF92CF92DF92F3
:10351000EF92FF920F931F93CF93DF93CDB7DEB758
:10352000CD57D1090FB6F894DEBF0FBECDBF1C0139
:1035300080910702811117C00E94B2088B019C0183
:103540006093FF0110930002809301023093020206
:1035500010920302109204021092050210920602C9
:1035600081E080930702D1011A968D909C9081147E
:10357000910409F457C0940140E050E060E070E02D
:1035800080E090E0A090FF01B0900002C0900102A6
:10359000D0900202E0900302F09004020091050234
:1035A000109106020E946C35E7962FAFE797E996D7
:1035B0003FAFE9976A017B018C010E94B2082B01A1
:1035C0003C01812C912C5401AF966FAFAF97E096E0
:1035D0005FAEE097E1968FAFE197E2967FAEE2971C
:1035E000E3968FAEE397E4969FAEE497E596AFAE91
:1035F000E597E696BFAEE697E7962FADE797E99693
:103600003FADE997A601B701C80152016301E12C62
:10361000F12C00E010E00E94753520F41092FE01BC
:103620001092FD01D1018D919C91DC01ED91FC91F5
:103630000084F185E02D0995181619060CF037C3A2
:103640000E94B2088B019C016093FF01109300025D
:10365000809301023093020210920302109204023E
:103660001092050210920602F10180819181DC0125
:10367000ED91FC910284F385E02D0995182FD1017D
:103680005096ED91FC9109952091FD013091FE013C
:10369000882309F4F2C22115310521F2F10182815A
:1036A0009381280F391FD9011C9282819381AD9695
:1036B0009FAF8EAFAD9780E5FE013196DF011D9281
:1036C0008A95E9F7F1016680778040845184EA9613
:1036D0005FAE4EAEEA97BE0165597F4FC1010E94B1
:1036E000A30B8C01EC961FAE1EAEEC9701151105D5
:1036F00009F494CFF80101900020E9F731972F01E8
:10370000401A510A7301D12CC12CB12CA12C920169
:103710002F5F3F4FE8963FAF2EAFE897EA968EAC0B
:103720009FACEA97C814D90461F1E096FFAEEEAE03
:10373000E097D7018D919C91FC0125913491F9017D
:1037400009954C01E8964EAD5FADE897BC01C80104
:103750000E94FD32892B41F1A201B401C8010E94EF
:10376000FD32892B39F4FFEFAF1ABF0AEE96DFAEB8
:10377000CEAEEE972FEFC21AD20A34E0E30EF11C60
:10378000CDCFAA94AB2809F062C2EE968EAD9FAD64
:10379000EE97880F991F880F991F2301480E591E15
:1037A000E0965FAE4EAEE097E0966EAC7FACE097F1
:1037B0006114710409F44BC2D3018D919C91FC01F9
:1037C000349625913491BE0163597F4FF9010995D3
:1037D000A7961FAEA797A9961FAE1EAEA997AB9648
:1037E0001FAE1EAEAB97EA969FAF8EAFEA97F12C55
:1037F000E12CEC964EAC5FACEC974E0C5F1CE8965F
:103800005FAE4EAEE897AE968FADAE978E151F04A5
:1038100009F008F4BCC145E050E0EA966EAD7FAD1A
:10382000EA97CE018A599F4F0E940A33BE0165591B
:103830007F4FC1010E94A30B6C01892B09F49FC12A
:1038400001E010E00C0F1D1FE7965FACE79745E025
:10385000642E569C000D111D1124A7968FADA797BD
:10386000823009F4A7C08330B9F1813009F0C6C0B5
:10387000D6018C918D3209F488C031E020E08B3282
:1038800009F030E0832F922F812C912C54018394E6
:10389000C80ED91E412C512C3201D601ED916D017B
:1038A000EE2309F479C0E053EA3008F0A7C0AAE09B
:1038B000B0E0A30192010E94A234DC01CB018E0F83
:1038C000911DA11DB11D84159505A605B7050CF424
:1038D00095C02C013D01E1CFA5961FAE1EAEA59768
:1038E000A396DFAECEAEA397A6968FAFA69785E040
:1038F000FE01EF59FF4FD80101900D928A95E1F733
:10390000F80180809180A280B3801481A996EEADE9
:10391000FFADA997309759F109956A962FAF6A972D
:103920006B963FAF6B976C964FAF6C976D965FAF92
:103930006D976E966FAF6E976F967FAF6F97A096ED
:103940008FAFA097A1969FAFA1976D966CAD7DADFF
:103950008EAD9FAD6D97A1964CAC5DAC6EAC7FAC5F
:10396000A197113009F46EC0123009F4F4C0FFEFD2
:10397000EF1AFF0AEA962EAD3FADEA972B5F3F4F55
:10398000EA963FAF2EAFEA9734CF88248A94982CDA
:10399000540181E090E07CCFA3019201C501B40104
:1039A0000E942235F801608371838283938381E0D2
:1039B0008483A6CFA3961FAE1EAEA397BE016F59F8
:1039C0007F4FC6010E94A4314B015C0120E030E032
:1039D000A9010E944633811107C0A3968EAD9FAD09
:1039E000A397C816D90651F0D8018D929D92AD9239
:1039F000BC921397E2E01496EC9382CF6AE173E0F5
:103A0000D1018D919C910E947509F1010081118174
:103A1000E8964EAD5FADE8974F5F5F4F70E060E0B6
:103A20002AE0C8010E943011C8010E94B411E0963A
:103A30006EAD7FADE097C1010E94AB19D1018D91B0
:103A40009C9186C086169706A806B90634F04814DD
:103A500059046A047B040CF08ACF6CEF72E0D10148
:103A60008D919C910E947509E8964EAD5FADE897E7
:103A70004F5F5F4F70E060E02AE0F101808191814B
:103A80000E943011A996EEADFFADA997CC24CA943F
:103A9000DC2CEC2C8FE7F82E812C912CA12C90E8BB
:103AA000B92E309729F1099562962FAF62976396E8
:103AB0003FAF639764964FAF649765965FAF659726
:103AC00066966FAF669767967FAF679768968FAF7A
:103AD000689769969FAF699765968CAC9DACAEACC4
:103AE000BFAC65976996CCACDDACEEACFFAC69972A
:103AF00069EF72E0D1018D919C910E947509B50129
:103B0000A401F101808191810E947C1165EF72E036
:103B1000D1018D919C910E947509B701A601F10117
:103B2000808191810E947C11D1010D911C9169E2EB
:103B3000C8010E946009C8010E94B411E0966EADF0
:103B40007FADE097C1010E94AB19F10180819181A5
:103B50000E94B41163CD0E944D33A50194010E94CF
:103B6000463318160CF479CFC301B2010E944D33CD
:103B7000A50194010E941D3587FFF9CE6ECF69ED36
:103B800072E0D1018D919C910E94E111D7CFE09616
:103B9000AEADBFADE0978D919C91FC013896E5905C
:103BA000F4903701FC013A9685919491EA969FAF83
:103BB0008EAFEA97E114F10411F5BE0165597F4F0C
:103BC000C1010E94A30B892B41F06FEB72E0F10160
:103BD000808191810E94E1112ACFE096AEADBFAD08
:103BE000E097ED91FC9136962591349121153105A0
:103BF00031F0BE016F5F7F4FC101F9010995BE0130
:103C000065597F4FC1010E94A30B8C01892BB1F430
:103C1000EF28A1F0E096AEADBFADE097ED91FC913D
:103C20003696259134912115310509F4F7CCBE0162
:103C30006F5F7F4FC101F9010995F0CCE8964EAC5A
:103C40005FACE897EC965FAE4EAEEC974FCD6FE968
:103C500072E0D1018D919C910E947509B801F1012A
:103C6000808191810E942111D1010D911C9162E20C
:103C7000C8010E946009C8016BCFF1018481958160
:103C80002817390768F40280F381E02DE20FF31F53
:103C900010832F5F3F4F3093FE012093FD01C2CC74
:103CA00067E373E0808191810E94E111B7CCC35832
:103CB000DF4F0FB6F894DEBF0FBECDBFDF91CF91BF
:103CC0001F910F91FF90EF90DF90CF90BF90AF903A
:103CD0009F908F907F906F905F904F903F902F902C
:103CE000089585ED8093BC0080915D0290915E0205
:103CF000A0915F02B09160020796A11DB11D23E063
:103D0000B695A795979587952A95D1F72091BC00F0
:103D100024FD03C010925B02089540915D02509112
:103D20005E0260915F0270916002452B462B472B2B
:103D300069F30097A105B10541F02AE22A95F1F750
:103D400000C00197A109B109E1CF80915C020C94F8
:103D5000470C1F920F920FB60F9211242F933F938F
:103D60008F939F93AF93BF9380911F0290912002F6
:103D7000A0912102B091220230911E0223E0230F74
:103D80002D3758F50196A11DB11D20931E02809379
:103D90001F0290932002A0932102B09322028091EF
:103DA000230290912402A0912502B091260201964F
:103DB000A11DB11D8093230290932402A09325029C
:103DC000B0932602BF91AF919F918F913F912F9118
:103DD0000F900FBE0F901F90189526E8230F0296A4
:103DE000A11DB11DD2CF1F920F920FB60F921124B9
:103DF0008F939F938091E1009091E100937F909346
:103E0000E10083FF0FC01092E90091E09093EB0076
:103E10001092EC0092E39093ED001092340298E03F
:103E20009093F00082FF22C093E09093E90090917C
:103E3000F200992319F09AE39093E800909114020C
:103E4000992341F090911402915090931402911192
:103E500001C05D9A90913302992341F09091330211
:103E6000915090933302911101C0289A84FF18C099
:103E70008091E2008E7E81608093E2008091E1007B
:103E80008F7E8093E100809115028E7E8061809309
:103E900015029F918F910F900FBE0F901F90189554
:103EA00080FFF7CF8091E2008E7E80618093E200F8
:103EB0008091E1008E7E8093E100809115028E7EDC
:103EC0008160E5CF1F920F920FB60F921124CF920F
:103ED000DF92EF92FF920F931F932F933F934F9395
:103EE0005F936F937F938F939F93AF93BF93EF9362
:103EF000FF93CF93DF93CDB7DEB76C97DEBFCDBF17
:103F00001092E9008091E80083FF25C068E0CE01AF
:103F100045960E94530982EF8093E8008D8987FFC0
:103F200039C09091E80090FFFCCF982F907609F06F
:103F300034C19E894F89588D2F89F88C911131C0D9
:103F4000803861F5809116028093F1001092F100A3
:103F50008EEF8093E8006C960FB6F894DEBF0FBE2C
:103F6000CDBFDF91CF91FF91EF91BF91AF919F9125
:103F70008F917F916F915F914F913F912F911F9101
:103F80000F91FF90EF90DF90CF900F900FBE0F90AA
:103F90001F9018959EEF9093E800C7CF1092F10004
:103FA000D5CF913059F48111D3CF4130510581F6ED
:103FB000809116028D7F80931602CACF933049F408
:103FC0008111C6CF4130510519F6809116028260E9
:103FD000F2CF953041F48091E80080FFFCCF20685B
:103FE0002093E300B5CF963009F0A9C00B8D1C8D4E
:103FF00022E01092E9001092120210921102F212C5
:104000002EC01092100210920F020E9422091F82ED
:1040100099E09983FA8291E09E8390EA98879AEFDB
:1040200099872091110230911202275F3F4F3C8304
:104030002B838D831092E9001092120210921102CC
:104040001093100200930F0249E050E0BE016F5F31
:104050007F4F80E00E94FC080E94220979CF1093D4
:10406000100200930F020E94C506DC0112960D910A
:104070001C910115110509F451C1D801ED91FC9174
:104080000480F581E02DBE016B5E7F4FC80109956C
:10409000009709F03EC1F80100851185EACFF3E0F1
:1040A000FF120EC08F89882309F440C0823061F46A
:1040B00040E862E18BE296E00E94D52F811148CF63
:1040C00081E28093EB0047CF813029F440E868E03B
:1040D00082E296E0F1CF833099F70E94C506DC01B9
:1040E0001296ED90FC908E010F5F1F4F6801E11456
:1040F000F10479F0D701ED91FC910680F781E02D74
:10410000B801C7010995080F111DF701E084F1847A
:10411000EECFD8011C92F60101900020E9F731970B
:10412000BF016C197D0940E0C601C6CF6CE076E0A6
:10413000FB01449150E080E80E94FC0809CF9730D1
:1041400009F4BECF983021F481E08093F10000CFD4
:10415000993009F0FDCE837009F0B2CFE3E3F1E0CE
:1041600081E031E096E32191222371F08093E90010
:104170003093EB00DF0111972C912093EC0090938A
:10418000ED008F5F873079F78EE78093EA00109219
:10419000EA008F8980933402DBCE8B8D9C8D109248
:1041A000E900109212021092110290931002809373
:1041B0000F02898D811192C08E899D89913A49F4AF
:1041C000813209F07DCF47E050E064E071E080E0AB
:1041D000B3CF913209F074CF833269F48F89988D0F
:1041E000B0E0A0E08093000190930101A093020150
:1041F000B0930301ADCE803269F48091E80082FF74
:10420000FCCF67E084E091E00E9453098BEF80933C
:10421000E8009ECE823209F09BCE8F8980930B01FD
:10422000EEEFFFE7859194918B3F9C4D51F1E0E0DB
:10423000F8E08091040190910501A0910601B091F0
:104240000701803B9440A105B105F1F480910B0179
:1042500080FD1AC0EE3F8AE0F80789F587E797E707
:1042600091838083809160008093130288E19BE0BA
:104270000FB6F894A895809360000FBE90936000ED
:1042800067CEEEEFFAE0D5CF8081918187379747EF
:1042900009F05ECEA89580916000886180936000EF
:1042A0008091130280936000EE3F2AE0F20789F0CC
:1042B0008091FE0A9091FF0A9183808349CE80818C
:1042C00091818737980751F29093FF0A8093FE0AF5
:1042D000C5CF1092FF0A1092FE0A3ACE0E94C50680
:1042E000DC0112960D911C910115110509F4E8CE1F
:1042F000D801ED91FC910190F081E02DBE016B5E43
:104300007F4FC8010995811123CEF80100851185E1
:10431000EBCF181619060CF41BCED2CEF1E0FF122B
:10432000BECE60E176E004CF1F920F920FB60F92DF
:1043300011242F933F934F935F936F937F938F93AA
:104340009F93AF93BF93EF93FF938091B900887FC2
:10435000803609F44AC0F0F5883209F4A7C018F590
:10436000803109F49BC0B8F4882309F4F9C088307F
:1043700009F494C0FF91EF91BF91AF919F918F91FC
:104380007F916F915F914F913F912F910F900FBE51
:104390000F901F901895883109F488C0803251F72A
:1043A0008093590214C0803409F49DC040F48033D6
:1043B000B9F38833F9F68093590285ECB0C08035A3
:1043C00009F485C0883509F496C0883499F60E94AE
:1043D000711ED0CF883909F48CC038F5883729F0A0
:1043E00050F4883611F0803729F683E080935B0221
:1043F0001092FC0157C0883809F47BC0803919F04D
:10440000803809F0B7CF8091FC01803208F071C08C
:10441000E091FC0181E08E0F8093FC018091BB0054
:10442000F0E0E452FE4F80833DC0803B39F0E0F481
:10443000803A09F479C0883A09F09CCF84E08093EF
:104440005B021092DB011092DA01E0911902F09107
:104450001A0209958091DA0181110FC081E08093E1
:10446000DA011092BA0109C0803C09F4A6CF883C59
:1044700009F4A3CF883B09F07DCFE091DB0181E017
:104480008E0F8093DB01F0E0E654FE4F8081809335
:10449000BB009091DB018091DA0129C08091360246
:1044A0008093BB0085EC8093BC0064CF9091580250
:1044B00080915702981758F5E091580281E08E0FCD
:1044C00080935802F0E0E95CFD4F8081E9CFE091F4
:1044D000580281E08E0F809358028091BB00F0E07B
:1044E000E95CFD4F808390915802809157029817A4
:1044F000C8F285E8D8CFE091580281E08E0F809312
:1045000058028091BB00F0E0E95CFD4F8083809110
:104510005A0281115CCF81E08093350284EA809356
:10452000BC0010925B0226CF85EC8093BC001092F9
:104530005B028091FC01803230F4E091FC01F0E0FC
:10454000E452FE4F10826091FC0170E0E09117028E
:10455000F09118028CED91E009951092FC010ACFC0
:104560001092590234CF1F920F920FB60F9211245E
:104570002F933F934F935F936F937F938F939F936B
:10458000AF93BF93EF93FF938DEA94E00E94660E82
:10459000809177058F3F09F449C08091770581119B
:1045A0005AC0E0916405F09165058081909166059F
:1045B000892329F481E08093770510927805809112
:1045C00079058F3F99F180917905893008F0ABC06A
:1045D000813008F4D4C080917A0580FFADC00E947C
:1045E0007E0680917A0590E09595879580937A056F
:1045F000809179058F3F09F0F1C080916E0590910F
:104600006F05FC01E05CFF4F30813196208132174D
:1046100069F0A081A80FB92FB11D9C9180818F5F97
:104620008F73808390937A05109279058DEA94E0D8
:104630000E941F0EFF91EF91BF91AF919F918F91BB
:104640007F916F915F914F913F912F910F900FBE8E
:104650000F901F901895809177058930F8F4E091BC
:104660006405F091650530814091770520917805CA
:1046700080916605382381E090E009F480E04150A4
:10468000550B01C0880F4A95EAF7822B8093780575
:10469000809177058F5F8093770591CF8091750525
:1046A000909176050097B1F00197C1F5809178055A
:1046B0000E94613521E082278170E0916405F091CC
:1046C0006505908120916605922321E009F420E0A0
:1046D000821321C04091780520916C0530916D05C1
:1046E000F901E05CFF4F8081D901AF5BBF4F5C9166
:1046F00090E001968F7399275817190661F0808111
:104700008F5F8F739C91891731F0A081A20FB32F17
:10471000B11D4C9380831092770551CF809178051D
:104720000E946135C9CF8A3009F446C080F08B30D1
:1047300009F44DC08FEF3DC0E0916705F091680529
:10474000908180916B058095892380834ACF8091E9
:104750007505909176050097E9F0019759F48091DD
:104760007A050E94613521E08227882341F00E946A
:104770007E063ECF80917A050E946135F6CFE091AA
:104780006705F0916805908180916B05809589237C
:1047900080832ECF809179058F5F809379050E9469
:1047A0007E0680917405813009F022CF80917905D1
:1047B0008F5F809379051CCF809175059091760568
:1047C000892B69F780917405823089F211CF80912D
:1047D000750590917605892BA9F70ACF8091790507
:1047E0008F5F8093790522CFFC01862F108611867A
:1047F000608371831282138214821582178216825B
:10480000128613861486158616861786108A118AD4
:10481000128A138A148A158A168A178A108E118EA4
:10482000138E128E148E158E168E178E10A211A254
:1048300012A213A214A215A216A217A211A610A6C4
:1048400061E00C947C07FC011182108212821382B9
:10485000148215828FEF9FEFDC0186839783A087F8
:10486000B187128613861486158616861786108AD7
:10487000118A128A138A148A158A08956F927F9278
:104880008F929F92AF92BF92CF92DF92EF92FF9260
:104890000F931F93CF93DF930FE213E0F80113827E
:1048A000128288EE882E83E0982EA12CB12C84826F
:1048B0009582A682B7828DE391E091838083CC2498
:1048C000CA94DC2CD586C4862BE0E22E25E0F22E9D
:1048D000F7011382128284829582A682B7828FE4C6
:1048E00091E09183808368E070E08DE896E00E941B
:1048F000F42369E070E087EB96E00E94F423CDE8B2
:10490000D6E01092E1061C8E1D8E1E8E1F8E1B821D
:1049100032E0632E6C82CE010E9418131092D306EF
:104920001092D4061092D5061092D606772473946E
:104930007DA66EA687EB96E00E94181361E170E0F9
:1049400083E696E00E94F4236EE170E089E396E04E
:104950000E94F423CAE1D6E08AE090E0998388833C
:104960001A821B821C821D821E821F821886198653
:104970001B861A8662E00E947C071D861C8681E0E9
:1049800090E09F878E8788810E942507998B888B6E
:104990009B8B8A8B9D8B8C8B1E8A1F8A188E198EFF
:1049A0001A8E1B8E1C8E1D8E1E8E82E390E0A0E060
:1049B000B0E08A839B83AC83BD83CFEFD5E083E1F6
:1049C00090E0998388831B821A821D821C821E823A
:1049D0001F82188619861A861B861C861D868FEFF5
:1049E0009FEFDC018A8B9B8BAC8BBD8B1E8A1F8A51
:1049F000188E198E61E083E10E947C071A8E1D8259
:104A00001C821B821A8260E088810E944E071092ED
:104A1000FD051092FE051092BB051092BC05A6E59F
:104A2000B5E013961C921E92129714968D929D9249
:104A3000AD92BC92179787E891E011969C938E9364
:104A4000E1E1FBE08491E2EFFAE0249150962C93AF
:104A5000509790E0880F991FFC01E252F54F459165
:104A600054911D965C934E931C97FC01E053F54FB7
:104A7000459154911F965C934E931E97FC01EE5303
:104A8000F54FC591D491E88120952E2328831C965B
:104A9000ED91FC911D97808150969C915097892BA8
:104AA0008083E2E1FBE08491E3EFFAE02491559604
:104AB0002C93559790E0880F991FFC01E252F54F17
:104AC0004591549152965C934E935197FC01E0535B
:104AD000F54F4591549154965C934E935397FC0136
:104AE000EE53F54FC591D491E8812E2B28838DEBA1
:104AF00095E057969C938E9356978BE795E0599641
:104B00009C938E93589740E855E260E070E05A9687
:104B10004D935D936D937C935D975E967C925E97CB
:104B200090961C921E925F978FEF91968C9391971F
:104B300092961C92929793968C93939794961C922C
:104B40009497CCE1D5E0B983A8831A827B8280E177
:104B50008C831E821D8218861F821E861D86DC861F
:104B6000CB868FEF9FE39A8789871FA618AA8BE2CF
:104B700095E00E940F0E84E089AB7AAA1BAA1CAABA
:104B80001DAA1EAA1FAA19AE18AEE7E1F5E0F18230
:104B9000E082128214821382C3ECD4E01B821A8258
:104BA0008C829D82AE82BF8261E6C62E61E0D62EE7
:104BB000D982C88280E490E00E9423309D878C8750
:104BC00070E4E72EF12CFF86EE86198A188A1B8A7C
:104BD0001A8A1F8A1E8A888E998EAA8EBB8EDD8ABB
:104BE000CC8A80E490E00E94233099A388A3FBA2A2
:104BF000EAA21DA21CA21FA21EA21BA61AA68CA678
:104C00009DA6AEA6BFA625E731E039A728A7DDAB54
:104C1000CCAB87ED94E09FAB8EAB1BAE1AAE8CAEE7
:104C20009DAEAEAEBFAE39AF28AF9093080580936E
:104C30000705D0930A05C09309058DEA94E00E9408
:104C4000232487E994E00E94232481E894E00E94D1
:104C500023248BE694E00E94232485E594E00E94BF
:104C600023248FE394E00E94232489E294E00E94AD
:104C7000232483E194E00E9423248DEF93E00E949B
:104C8000232487EE93E00E94232481ED93E00E9489
:104C900023248BEB93E00E94232485EA93E00E9477
:104CA0002324E1E9F3E08DE69CE091838083138285
:104CB000128287E59CE0958384831782168284E3C1
:104CC0009CE0918780871386128682E19CE095871D
:104CD0008487178616868BEE9BE0918B808B138AD8
:104CE000128AAFE7B3E011961C930E938FEE92E019
:104CF00013969C938E9312971596FC92EE921497AE
:104D00001796FC93EE93169785E090E019969C9386
:104D10008E9318971B961C921E921A9742E756E0A4
:104D20001D965C934E931C9728E736E01F963C93A4
:104D30002E931E9780ED9EE051969C938E935097F4
:104D4000E7EDF2E06CEC7BE071836083138212820A
:104D500066EB7BE0758364831782168264E97BE0EF
:104D6000718760871386128665E77BE075876487A5
:104D70001786168664E57BE0718B608B138A128A36
:104D80006AE27BE0758B648B178A168AA5ECB2E029
:104D90006BEF74E011967C936E9365E872E0139666
:104DA0007C936E9312971596FC92EE921497179639
:104DB000FC93EE93169766E070E019967C936E93E1
:104DC00018971B961C921E921A971D965C934E93F1
:104DD0001C971F963C932E931E9751969C938E93EF
:104DE0005097DF91CF911F910F91FF90EF90DF903F
:104DF000CF90BF90AF909F908F907F906F900895CD
:104E0000CF93DF93CDB7DEB7AB970FB6F894DEBF85
:104E10000FBECDBF789484B5826084BD84B58160B7
:104E200084BD85B5826085BD85B5816085BD809175
:104E30006E00816080936E001092810080918100ED
:104E400082608093810080918100816080938100E5
:104E500080918000816080938000809191008260C9
:104E60008093910080919100816080939100809166
:104E700090008160809390008091C1008460809355
:104E8000C1008091C10082608093C1008091C10007
:104E900081608093C1008091C30081608093C300D2
:104EA0008091C00082608093C0008091C2008160C8
:104EB0008093C20080917A00846080937A00809110
:104EC0007A00826080937A0080917A00816080937A
:104ED0007A0080917A00806880937A001092340280
:104EE00010921602109215028091D7008160809373
:104EF000D70080EA8093D80089B5806189BD89B5E3
:104F0000826089BD09B400FEFDCF61E070E080E001
:104F100090E00E9480088091D8008F7C806180930F
:104F2000D8008091E000807F8093E0008091E100D4
:104F30008E7E8093E1001DE01093E200559A209A46
:104F40008FEF9FEF90933C0380933B0368EE73E0F9
:104F500080E090E00E9480080E94E80E80E096E9E0
:104F6000A0E0B0E08093700590937105A093720566
:104F7000B093730581E080937405109276051092CA
:104F80007505109277050E947E061092800010929F
:104F900081008091810088608093810080918100F0
:104FA0008C7E8093810080918100887F8093810036
:104FB0008091810081608093810081EA91E09093EB
:104FC00089008093880080916F00826080936F00D9
:104FD0000E94D90E10921C0210921B0210926202C3
:104FE000109284020E94290C8CEC98E090931A0293
:104FF000809319028DEC98E0909318028093170229
:105000000FB6F894A8958091600088618093600045
:10501000109260000FBE88E10FB6F894A8958093B7
:1050200060000FBE10936000E091E206F091E3068D
:10503000309711F4E8EEF6E085EC2AE0EF3FF20756
:1050400010F48193FACFC12CD12C760108EE13E035
:1050500020E030E048EE53E060E070E083E696E068
:105060000E945B1458EEC52E53E0D52EE12CF12C96
:1050700008EE13E020E030E048EE53E060E070E03E
:1050800089E396E00E945B1460E080911F050E9416
:105090007C0761E0809120050E947C0761E080919F
:1050A0001E050E947C0760E0809120050E944E074B
:1050B00061E080911E050E944E0784E00E94BE08B8
:1050C00083E09BE0909355058093540565EC76E072
:1050D000CE0101960E947D19CE0101960E94981280
:1050E000CE0101960E94CF0F83EB96E09093AE0421
:1050F0008093AD048AEA96E0909398048093970495
:1051000080EA96E090938204809381048CE996E093
:1051100090936C0480936B0482E996E0909356041C
:10512000809355048BE896E09093400480933F046D
:1051300082E896E090932A048093290482E796E01F
:1051400090931404809313048CE696E09093FE03EE
:105150008093FD0385E696E09093D2038093D1037C
:1051600082E596E09093E8038093E70383E496E07A
:105170009093BC038093BB038EE396E09093A603C9
:105180008093A5030E94D70F811102C010920D01D8
:105190006EEC76E08FE293E00E94E11142E0A42EF3
:1051A000B12C5524539492E0492E66246394712CBB
:1051B00030E0832E30E0932E85EA93E00E94660E65
:1051C00087E994E00E94660EA89587E994E00E9422
:1051D0001F0E81E894E00E94660E80910C018823E6
:1051E00051F010920C018FE293E00E9464168FE25E
:1051F00093E00E94F31181E894E00E941F0E8BE679
:1052000094E00E94660E8DE896E00E94181387EBEA
:1052100096E00E9418138BE694E00E941F0E85E52D
:1052200094E00E94660E83E696E00E94181389E3DC
:1052300096E00E94181385E594E00E941F0E8FE30C
:1052400094E00E94660E80911A060E9425078C0148
:105250000E94B20820912E0630912F0602171307E4
:1052600061F060933006709331068093320690931C
:10527000330610932F0600932E06C0903006D09070
:105280003106E0903206F09033066C197D098E09E4
:105290009F09C0901C06D0901D06E0901E06F0905D
:1052A0001F066C157D058E059F0560F080912C060C
:1052B00090912D0690932B0680932A0610932D062D
:1052C00000932C0620912A0630912B0680912C0603
:1052D00090912D0628173907E1F04091240650914E
:1052E00025064230510509F094C0409120065091A6
:1052F000210660912206709123064F5F5F4F6F4F2A
:105300007F4F4093200650932106609322067093AE
:105310002306409128065091290660912606709137
:1053200027064217530709F08CC08617970709F024
:105330008EC00E94B2086093340670933506809345
:105340003606909337068FE394E00E941F0E89E2A1
:1053500094E00E94660E8091110690911206A09131
:105360001306B0911406892B8A2B8B2B21F41092F3
:105370000406109203068091030690910406813082
:10538000910509F48CC0029709F4DEC089E294E02B
:105390000E941F0E83E194E00E94660E8FE793E067
:1053A0000E947C1A83E194E00E941F0E8DEF93E02F
:1053B0000E94660E80911F050E9425079C0191E0C6
:1053C0002130310509F090E080914F05981769F080
:1053D00090934F0569E877E02130310511F065EAD7
:1053E00077E08FE293E00E94E111E0914D05EA3011
:1053F00008F076C1F0E0E150F64D0C945A35C42D1A
:10540000632C972DF72AEA2A192B2F2B3D2B292CB9
:10541000462C4115510541F42130310509F079CF71
:10542000009709F462CF75CF4130510509F071CF73
:105430002115310509F06DCF8130910509F069CF53
:1054400054CF2617370719F44817590719F0109247
:10545000380679CF0E94B2080091340610913506C3
:105460002091360630913706DC01CB01801B910B71
:10547000A20BB30B8031E7E29E07A105B10520F036
:1054800083E0809338065FCF883B9B40A105B10540
:1054900018F04092380657CF5092380654CF0E94E9
:1054A000B20800911506109116062091170630914A
:1054B0001806601B710B820B930B00910D06109167
:1054C0000E0620910F0630911006601771078207B3
:1054D000930708F45BCFB0920406A092030661E044
:1054E0008091010690910206892B09F060E0862FD9
:1054F00090E090930206809301068091FF050E9440
:105500004E070E94B20860931506709316068093AA
:105510001706909318068091110690911206A0919B
:105520001306B09114060097A105B10509F42ECF1A
:105530000197A109B1098093110690931206A093D7
:105540001306B093140622CF8091010690910206B3
:10555000892B21F18091010690910206019709F0B3
:1055600015CF0E94B20800911506109116062091E1
:10557000170630911806601B710B820B930B00917C
:10558000050610910606209107063091080660175F
:1055900071078207930708F0A2CFF8CE0E94B208E5
:1055A00000911506109116062091170630911806E5
:1055B000601B710B820B930B0091090610910A0678
:1055C00020910B0630910C06601771078207930734
:1055D00008F285CF63E777E08FE293E00E94E11164
:1055E00060E0809120050E944E0783E01FC00E946A
:1055F000B20800915005109151052091520530914B
:105600005305601B710B820B930B6B3F710581057A
:10561000910508F465C061E0809120050E944E0765
:1056200061E080911E050E944E0785E00E94BE0841
:1056300057C00E94B2080091500510915105209169
:10564000520530915305601B710B820B930B653C27
:1056500079408105910508F443C086E0E7CF8BE2ED
:1056600095E00E940F0E6EE677E080911C05909108
:105670001D050E94750987E0D9CF80911C05909186
:105680001D05DC01ED91FC910084F185E02D09956B
:10569000892B09F4C3C080911C0590911D05DC0184
:1056A000ED91FC910284F385E02D0995182F8BA7CD
:1056B000BE01655D7F4F8BE295E00E94F70D1A30C9
:1056C000E1F689E697E00E944F108823B1F280E06E
:1056D0000E94BE0864E577E08FE293E00E94E1114A
:1056E00080914D058230A9F48BEE94E00E94ED0A82
:1056F000892B79F08BEE94E00E94080B90914E0577
:10570000992309F468C264EC77E08FE293E00E9489
:10571000E1118DEF93E00E941F0E87EE93E00E944F
:10572000660E85EC92E00E947C1A87EE93E00E9460
:105730001F0E81ED93E00E94660E10911905113045
:1057400009F451C2123009F4B2C281ED93E00E9413
:105750001F0E8BEB93E00E94660E80911D0281303C
:1057600009F4CEC308F4D4C2823009F4D1C38091C5
:105770001D0290910D01992309F4D7C381112CC00A
:1057800080912C0690912D06892B31F18091E106B4
:10579000882311F11092E1061092A9061092AA0630
:1057A0001092AB061092AC061092900640929106B1
:1057B0008DE896E00E9418131092D3061092D4063A
:1057C0001092D5061092D6065092BA064092BB06A9
:1057D00087EB96E00E94181380911906882379F0D0
:1057E00010921906109204061092030610920206F7
:1057F0001092010660E08091FF050E944E078BEB3E
:1058000093E00E941F0E85EA93E00E941F0E811410
:10581000910409F4D1CC0E940000C3CC0E94B208CC
:10582000009150051091510520915205309153057A
:10583000601B710B820B930B693B7B4081059105CB
:1058400008F44ECF6BE277E08FE293E00E94E11123
:10585000CCCE61E080911E050E944E070E94B208E6
:10586000009150051091510520915205309153053A
:10587000601B710B820B930B6536710581059105D9
:1058800008F42ECF50924E0580E0D0CE60E080919B
:105890001E050E944E070E94B2080091500510910B
:1058A00051052091520530915305601B710B820BFD
:1058B000930B673971058105910508F411CF10929A
:1058C0004E0582E0B3CE80911C0590911D05DC0150
:1058D000ED91FC910084F185E02D0995892B09F467
:1058E0000FC180911C0590911D05DC01ED91FC918B
:1058F0000284F385E02D0995182F8AA7BE01665D05
:105900007F4F8BE295E00E94F70D1A30E1F686E2B8
:1059100097E00E944F10882309F4CDC061E277E040
:105920008BE295E00E949B108C0119A21AA2CE0175
:1059300001960E940F0E80914B0590914C05891B9A
:105940008F7180171106E4F010161106CCF4F12CBB
:10595000E12CAE014D5D5F4F6E2D8BE295E00E9414
:10596000DD0D8BA189A7BE01675D7F4FCE0101963A
:105970000E94F70DBFEFEB1AFB0A0E151F0549F742
:1059800082E2FE013196ABE2B5E001900D928A957C
:10599000E1F700914B0580914C05081B0F71E12C3C
:1059A0000E1509F441C0AE014D5D5F4F6E2D8BE2C7
:1059B00095E00E94DD0D8BA1803211F4E394F0CFCD
:1059C000102F0150AE014D5D5F4F602F8BE295E0CF
:1059D0000E94DD0D8BA1803229F5102FE01688F38F
:1059E000E11008C080914B0590914C05891B8F7187
:1059F0000817A8F5F12C0E19110BF0161106B4F4C6
:105A00006F2D6E0DAE014D5D5F4F8BE295E00E94F4
:105A1000DD0DBE016D5D7F4F8BE295E00E94F70DBD
:105A2000F394EBCF012FDCCFE02EDACF80914B0542
:105A300090914C05891B8F718017110681F07CF0C5
:105A400090914B0580914C05981781F380914C05FE
:105A500080914C058F5F8F7180934C05E7CF8091CB
:105A6000210590912205892B09F40ECF0E948A0FFF
:105A70008C01FC01E680F780E114F10489F06BE20F
:105A800075E0CE0183960E947F18AE014D5D5F4F99
:105A900061E0C801F7010995CE0183960E94CF0FFE
:105AA0000115110509F4F0CEC8010E94CF0FC801FD
:105AB0000E94BF30E9CE6AE177E08BE295E00E9478
:105AC0009B10019609F4FFCE80912105909122054B
:105AD000892B09F4D9CE0E948A0F8C01DC0116961D
